{
  "_format": "hh-sol-artifact-1",
  "contractName": "PortfolioNFT",
  "sourceName": "contracts/PortfolioNFT.sol",
  "abi": [
    {
      "inputs": [],
      "stateMutability": "nonpayable",
      "type": "constructor"
    },
    {
      "anonymous": false,
      "inputs": [
        {
          "indexed": true,
          "internalType": "address",
          "name": "owner",
          "type": "address"
        },
        {
          "indexed": true,
          "internalType": "address",
          "name": "approved",
          "type": "address"
        },
        {
          "indexed": true,
          "internalType": "uint256",
          "name": "tokenId",
          "type": "uint256"
        }
      ],
      "name": "Approval",
      "type": "event"
    },
    {
      "anonymous": false,
      "inputs": [
        {
          "indexed": true,
          "internalType": "address",
          "name": "owner",
          "type": "address"
        },
        {
          "indexed": true,
          "internalType": "address",
          "name": "operator",
          "type": "address"
        },
        {
          "indexed": false,
          "internalType": "bool",
          "name": "approved",
          "type": "bool"
        }
      ],
      "name": "ApprovalForAll",
      "type": "event"
    },
    {
      "anonymous": false,
      "inputs": [
        {
          "indexed": true,
          "internalType": "address",
          "name": "previousOwner",
          "type": "address"
        },
        {
          "indexed": true,
          "internalType": "address",
          "name": "newOwner",
          "type": "address"
        }
      ],
      "name": "OwnershipTransferred",
      "type": "event"
    },
    {
      "anonymous": false,
      "inputs": [
        {
          "indexed": true,
          "internalType": "address",
          "name": "from",
          "type": "address"
        },
        {
          "indexed": true,
          "internalType": "address",
          "name": "to",
          "type": "address"
        },
        {
          "indexed": true,
          "internalType": "uint256",
          "name": "tokenId",
          "type": "uint256"
        }
      ],
      "name": "Transfer",
      "type": "event"
    },
    {
      "inputs": [],
      "name": "_tokenIds",
      "outputs": [
        {
          "internalType": "uint256",
          "name": "",
          "type": "uint256"
        }
      ],
      "stateMutability": "view",
      "type": "function"
    },
    {
      "inputs": [
        {
          "internalType": "address",
          "name": "to",
          "type": "address"
        },
        {
          "internalType": "uint256",
          "name": "tokenId",
          "type": "uint256"
        }
      ],
      "name": "approve",
      "outputs": [],
      "stateMutability": "nonpayable",
      "type": "function"
    },
    {
      "inputs": [
        {
          "internalType": "address",
          "name": "owner",
          "type": "address"
        }
      ],
      "name": "balanceOf",
      "outputs": [
        {
          "internalType": "uint256",
          "name": "",
          "type": "uint256"
        }
      ],
      "stateMutability": "view",
      "type": "function"
    },
    {
      "inputs": [
        {
          "internalType": "uint256",
          "name": "tokenId",
          "type": "uint256"
        }
      ],
      "name": "exists",
      "outputs": [
        {
          "internalType": "bool",
          "name": "",
          "type": "bool"
        }
      ],
      "stateMutability": "view",
      "type": "function"
    },
    {
      "inputs": [
        {
          "internalType": "uint256",
          "name": "tokenId",
          "type": "uint256"
        }
      ],
      "name": "getApproved",
      "outputs": [
        {
          "internalType": "address",
          "name": "",
          "type": "address"
        }
      ],
      "stateMutability": "view",
      "type": "function"
    },
    {
      "inputs": [
        {
          "internalType": "uint256",
          "name": "tokenId",
          "type": "uint256"
        }
      ],
      "name": "getPrice",
      "outputs": [
        {
          "internalType": "uint256",
          "name": "",
          "type": "uint256"
        }
      ],
      "stateMutability": "view",
      "type": "function"
    },
    {
      "inputs": [
        {
          "internalType": "address",
          "name": "owner",
          "type": "address"
        },
        {
          "internalType": "address",
          "name": "operator",
          "type": "address"
        }
      ],
      "name": "isApprovedForAll",
      "outputs": [
        {
          "internalType": "bool",
          "name": "",
          "type": "bool"
        }
      ],
      "stateMutability": "view",
      "type": "function"
    },
    {
      "inputs": [
        {
          "internalType": "string",
          "name": "uri",
          "type": "string"
        },
        {
          "internalType": "uint256",
          "name": "price",
          "type": "uint256"
        }
      ],
      "name": "mintNFT",
      "outputs": [
        {
          "internalType": "uint256",
          "name": "",
          "type": "uint256"
        }
      ],
      "stateMutability": "nonpayable",
      "type": "function"
    },
    {
      "inputs": [],
      "name": "name",
      "outputs": [
        {
          "internalType": "string",
          "name": "",
          "type": "string"
        }
      ],
      "stateMutability": "view",
      "type": "function"
    },
    {
      "inputs": [],
      "name": "owner",
      "outputs": [
        {
          "internalType": "address",
          "name": "",
          "type": "address"
        }
      ],
      "stateMutability": "view",
      "type": "function"
    },
    {
      "inputs": [
        {
          "internalType": "uint256",
          "name": "tokenId",
          "type": "uint256"
        }
      ],
      "name": "ownerOf",
      "outputs": [
        {
          "internalType": "address",
          "name": "",
          "type": "address"
        }
      ],
      "stateMutability": "view",
      "type": "function"
    },
    {
      "inputs": [],
      "name": "renounceOwnership",
      "outputs": [],
      "stateMutability": "nonpayable",
      "type": "function"
    },
    {
      "inputs": [
        {
          "internalType": "address",
          "name": "from",
          "type": "address"
        },
        {
          "internalType": "address",
          "name": "to",
          "type": "address"
        },
        {
          "internalType": "uint256",
          "name": "tokenId",
          "type": "uint256"
        }
      ],
      "name": "safeTransferFrom",
      "outputs": [],
      "stateMutability": "nonpayable",
      "type": "function"
    },
    {
      "inputs": [
        {
          "internalType": "address",
          "name": "from",
          "type": "address"
        },
        {
          "internalType": "address",
          "name": "to",
          "type": "address"
        },
        {
          "internalType": "uint256",
          "name": "tokenId",
          "type": "uint256"
        },
        {
          "internalType": "bytes",
          "name": "data",
          "type": "bytes"
        }
      ],
      "name": "safeTransferFrom",
      "outputs": [],
      "stateMutability": "nonpayable",
      "type": "function"
    },
    {
      "inputs": [
        {
          "internalType": "address",
          "name": "operator",
          "type": "address"
        },
        {
          "internalType": "bool",
          "name": "approved",
          "type": "bool"
        }
      ],
      "name": "setApprovalForAll",
      "outputs": [],
      "stateMutability": "nonpayable",
      "type": "function"
    },
    {
      "inputs": [
        {
          "internalType": "uint256",
          "name": "tokenId",
          "type": "uint256"
        },
        {
          "internalType": "uint256",
          "name": "newPrice",
          "type": "uint256"
        }
      ],
      "name": "setPrice",
      "outputs": [],
      "stateMutability": "nonpayable",
      "type": "function"
    },
    {
      "inputs": [
        {
          "internalType": "bytes4",
          "name": "interfaceId",
          "type": "bytes4"
        }
      ],
      "name": "supportsInterface",
      "outputs": [
        {
          "internalType": "bool",
          "name": "",
          "type": "bool"
        }
      ],
      "stateMutability": "view",
      "type": "function"
    },
    {
      "inputs": [],
      "name": "symbol",
      "outputs": [
        {
          "internalType": "string",
          "name": "",
          "type": "string"
        }
      ],
      "stateMutability": "view",
      "type": "function"
    },
    {
      "inputs": [
        {
          "internalType": "uint256",
          "name": "",
          "type": "uint256"
        }
      ],
      "name": "tokenPrices",
      "outputs": [
        {
          "internalType": "uint256",
          "name": "",
          "type": "uint256"
        }
      ],
      "stateMutability": "view",
      "type": "function"
    },
    {
      "inputs": [
        {
          "internalType": "uint256",
          "name": "tokenId",
          "type": "uint256"
        }
      ],
      "name": "tokenURI",
      "outputs": [
        {
          "internalType": "string",
          "name": "",
          "type": "string"
        }
      ],
      "stateMutability": "view",
      "type": "function"
    },
    {
      "inputs": [
        {
          "internalType": "address",
          "name": "from",
          "type": "address"
        },
        {
          "internalType": "address",
          "name": "to",
          "type": "address"
        },
        {
          "internalType": "uint256",
          "name": "tokenId",
          "type": "uint256"
        }
      ],
      "name": "transferFrom",
      "outputs": [],
      "stateMutability": "nonpayable",
      "type": "function"
    },
    {
      "inputs": [
        {
          "internalType": "address",
          "name": "newOwner",
          "type": "address"
        }
      ],
      "name": "transferOwnership",
      "outputs": [],
      "stateMutability": "nonpayable",
      "type": "function"
    }
  ],
  "bytecode": "0x60806040523480156200001157600080fd5b506040518060400160405280600d81526020016c141bdc9d199bdb1a5bc8139195609a1b815250604051806040016040528060048152602001631413919560e21b81525081600090816200006691906200019a565b5060016200007582826200019a565b505050620000926200008c6200009d60201b60201c565b620000a1565b600060075562000266565b3390565b600680546001600160a01b038381166001600160a01b0319831681179093556040519116919082907f8be0079c531659141344cd1fd0a4f28419497f9722a3daafe3b4186f6b6457e090600090a35050565b634e487b7160e01b600052604160045260246000fd5b600181811c908216806200011e57607f821691505b6020821081036200013f57634e487b7160e01b600052602260045260246000fd5b50919050565b601f82111562000195576000816000526020600020601f850160051c81016020861015620001705750805b601f850160051c820191505b8181101562000191578281556001016200017c565b5050505b505050565b81516001600160401b03811115620001b657620001b6620000f3565b620001ce81620001c7845462000109565b8462000145565b602080601f831160018114620002065760008415620001ed5750858301515b600019600386901b1c1916600185901b17855562000191565b600085815260208120601f198616915b82811015620002375788860151825594840194600190910190840162000216565b5085821015620002565787850151600019600388901b60f8161c191681555b5050505050600190811b01905550565b61174d80620002766000396000f3fe608060405234801561001057600080fd5b50600436106101425760003560e01c80638da5cb5b116100b8578063c87b56dd1161007c578063c87b56dd14610294578063e5afe3e6146102a7578063e7572230146102c7578063e985e9c5146102da578063f2fde38b14610316578063f7d975771461032957600080fd5b80638da5cb5b1461024c57806395d89b411461025d578063a22cb46514610265578063aa46a40014610278578063b88d4fde1461028157600080fd5b806342842e0e1161010a57806342842e0e146101d75780634f558e79146101ea5780635afa3a72146101fd5780636352211e1461021e57806370a0823114610231578063715018a61461024457600080fd5b806301ffc9a71461014757806306fdde031461016f578063081812fc14610184578063095ea7b3146101af57806323b872dd146101c4575b600080fd5b61015a610155366004611100565b61033c565b60405190151581526020015b60405180910390f35b61017761038e565b604051610166919061116a565b61019761019236600461117d565b610420565b6040516001600160a01b039091168152602001610166565b6101c26101bd3660046111b2565b610447565b005b6101c26101d23660046111dc565b610561565b6101c26101e53660046111dc565b610592565b61015a6101f836600461117d565b6105ad565b61021061020b3660046112a4565b6105b8565b604051908152602001610166565b61019761022c36600461117d565b610610565b61021061023f3660046112fd565b610670565b6101c26106f6565b6006546001600160a01b0316610197565b61017761070a565b6101c2610273366004611318565b610719565b61021060075481565b6101c261028f366004611354565b610728565b6101776102a236600461117d565b610760565b6102106102b536600461117d565b60086020526000908152604090205481565b6102106102d536600461117d565b61086b565b61015a6102e83660046113d0565b6001600160a01b03918216600090815260056020908152604080832093909416825291909152205460ff1690565b6101c26103243660046112fd565b6108a5565b6101c2610337366004611403565b61091e565b60006001600160e01b031982166380ac58cd60e01b148061036d57506001600160e01b03198216635b5e139f60e01b145b8061038857506301ffc9a760e01b6001600160e01b03198316145b92915050565b60606000805461039d90611425565b80601f01602080910402602001604051908101604052809291908181526020018280546103c990611425565b80156104165780601f106103eb57610100808354040283529160200191610416565b820191906000526020600020905b8154815290600101906020018083116103f957829003601f168201915b5050505050905090565b600061042b826109c4565b506000908152600460205260409020546001600160a01b031690565b600061045282610610565b9050806001600160a01b0316836001600160a01b0316036104c45760405162461bcd60e51b815260206004820152602160248201527f4552433732313a20617070726f76616c20746f2063757272656e74206f776e656044820152603960f91b60648201526084015b60405180910390fd5b336001600160a01b03821614806104e057506104e081336102e8565b6105525760405162461bcd60e51b815260206004820152603d60248201527f4552433732313a20617070726f76652063616c6c6572206973206e6f7420746f60448201527f6b656e206f776e6572206f7220617070726f76656420666f7220616c6c00000060648201526084016104bb565b61055c8383610a14565b505050565b61056b3382610a82565b6105875760405162461bcd60e51b81526004016104bb9061145f565b61055c838383610b01565b61055c83838360405180602001604052806000815250610728565b600061038882610c65565b60006001600760008282546105cd91906114ac565b90915550506007546105df3382610c82565b60008181526009602052604090206105f7858261151d565b5060008181526008602052604090209290925550919050565b6000818152600260205260408120546001600160a01b0316806103885760405162461bcd60e51b8152602060048201526018602482015277115490cdcc8c4e881a5b9d985b1a59081d1bdad95b88125160421b60448201526064016104bb565b60006001600160a01b0382166106da5760405162461bcd60e51b815260206004820152602960248201527f4552433732313a2061646472657373207a65726f206973206e6f7420612076616044820152683634b21037bbb732b960b91b60648201526084016104bb565b506001600160a01b031660009081526003602052604090205490565b6106fe610c9c565b6107086000610cf6565b565b60606001805461039d90611425565b610724338383610d48565b5050565b6107323383610a82565b61074e5760405162461bcd60e51b81526004016104bb9061145f565b61075a84848484610e16565b50505050565b606061076b82610c65565b6107cd5760405162461bcd60e51b815260206004820152602d60248201527f506f7274666f6c696f4e46543a2055524920717565727920666f72206e6f6e6560448201526c3c34b9ba32b73a103a37b5b2b760991b60648201526084016104bb565b600082815260096020526040902080546107e690611425565b80601f016020809104026020016040519081016040528092919081815260200182805461081290611425565b801561085f5780601f106108345761010080835404028352916020019161085f565b820191906000526020600020905b81548152906001019060200180831161084257829003601f168201915b50505050509050919050565b600061087682610c65565b6108925760405162461bcd60e51b81526004016104bb906115dd565b5060009081526008602052604090205490565b6108ad610c9c565b6001600160a01b0381166109125760405162461bcd60e51b815260206004820152602660248201527f4f776e61626c653a206e6577206f776e657220697320746865207a65726f206160448201526564647265737360d01b60648201526084016104bb565b61091b81610cf6565b50565b61092782610c65565b6109435760405162461bcd60e51b81526004016104bb906115dd565b3361094d83610610565b6001600160a01b0316146109b25760405162461bcd60e51b815260206004820152602660248201527f506f7274666f6c696f4e46543a204f6e6c79206f776e65722063616e2073657460448201526520707269636560d01b60648201526084016104bb565b60009182526008602052604090912055565b6109cd81610c65565b61091b5760405162461bcd60e51b8152602060048201526018602482015277115490cdcc8c4e881a5b9d985b1a59081d1bdad95b88125160421b60448201526064016104bb565b600081815260046020526040902080546001600160a01b0319166001600160a01b0384169081179091558190610a4982610610565b6001600160a01b03167f8c5be1e5ebec7d5bd14f71427d1e84f3dd0314c0f7b2291e5b200ac8c7c3b92560405160405180910390a45050565b600080610a8e83610610565b9050806001600160a01b0316846001600160a01b03161480610ad557506001600160a01b0380821660009081526005602090815260408083209388168352929052205460ff165b80610af95750836001600160a01b0316610aee84610420565b6001600160a01b0316145b949350505050565b826001600160a01b0316610b1482610610565b6001600160a01b031614610b3a5760405162461bcd60e51b81526004016104bb90611626565b6001600160a01b038216610b9c5760405162461bcd60e51b8152602060048201526024808201527f4552433732313a207472616e7366657220746f20746865207a65726f206164646044820152637265737360e01b60648201526084016104bb565b826001600160a01b0316610baf82610610565b6001600160a01b031614610bd55760405162461bcd60e51b81526004016104bb90611626565b600081815260046020908152604080832080546001600160a01b03199081169091556001600160a01b0387811680865260038552838620805460001901905590871680865283862080546001019055868652600290945282852080549092168417909155905184937fddf252ad1be2c89b69c2b068fc378daa952ba7f163c4a11628f55a4df523b3ef91a4505050565b6000908152600260205260409020546001600160a01b0316151590565b610724828260405180602001604052806000815250610e49565b6006546001600160a01b031633146107085760405162461bcd60e51b815260206004820181905260248201527f4f776e61626c653a2063616c6c6572206973206e6f7420746865206f776e657260448201526064016104bb565b600680546001600160a01b038381166001600160a01b0319831681179093556040519116919082907f8be0079c531659141344cd1fd0a4f28419497f9722a3daafe3b4186f6b6457e090600090a35050565b816001600160a01b0316836001600160a01b031603610da95760405162461bcd60e51b815260206004820152601960248201527f4552433732313a20617070726f766520746f2063616c6c65720000000000000060448201526064016104bb565b6001600160a01b03838116600081815260056020908152604080832094871680845294825291829020805460ff191686151590811790915591519182527f17307eab39ab6107e8899845ad3d59bd9653f200f220920489ca2b5937696c31910160405180910390a3505050565b610e21848484610b01565b610e2d84848484610e7c565b61075a5760405162461bcd60e51b81526004016104bb9061166b565b610e538383610f7d565b610e606000848484610e7c565b61055c5760405162461bcd60e51b81526004016104bb9061166b565b60006001600160a01b0384163b15610f7257604051630a85bd0160e11b81526001600160a01b0385169063150b7a0290610ec09033908990889088906004016116bd565b6020604051808303816000875af1925050508015610efb575060408051601f3d908101601f19168201909252610ef8918101906116fa565b60015b610f58573d808015610f29576040519150601f19603f3d011682016040523d82523d6000602084013e610f2e565b606091505b508051600003610f505760405162461bcd60e51b81526004016104bb9061166b565b805181602001fd5b6001600160e01b031916630a85bd0160e11b149050610af9565b506001949350505050565b6001600160a01b038216610fd35760405162461bcd60e51b815260206004820181905260248201527f4552433732313a206d696e7420746f20746865207a65726f206164647265737360448201526064016104bb565b610fdc81610c65565b156110295760405162461bcd60e51b815260206004820152601c60248201527f4552433732313a20746f6b656e20616c7265616479206d696e7465640000000060448201526064016104bb565b61103281610c65565b1561107f5760405162461bcd60e51b815260206004820152601c60248201527f4552433732313a20746f6b656e20616c7265616479206d696e7465640000000060448201526064016104bb565b6001600160a01b038216600081815260036020908152604080832080546001019055848352600290915280822080546001600160a01b0319168417905551839291907fddf252ad1be2c89b69c2b068fc378daa952ba7f163c4a11628f55a4df523b3ef908290a45050565b6001600160e01b03198116811461091b57600080fd5b60006020828403121561111257600080fd5b813561111d816110ea565b9392505050565b6000815180845260005b8181101561114a5760208185018101518683018201520161112e565b506000602082860101526020601f19601f83011685010191505092915050565b60208152600061111d6020830184611124565b60006020828403121561118f57600080fd5b5035919050565b80356001600160a01b03811681146111ad57600080fd5b919050565b600080604083850312156111c557600080fd5b6111ce83611196565b946020939093013593505050565b6000806000606084860312156111f157600080fd5b6111fa84611196565b925061120860208501611196565b9150604084013590509250925092565b634e487b7160e01b600052604160045260246000fd5b600067ffffffffffffffff8084111561124957611249611218565b604051601f8501601f19908116603f0116810190828211818310171561127157611271611218565b8160405280935085815286868601111561128a57600080fd5b858560208301376000602087830101525050509392505050565b600080604083850312156112b757600080fd5b823567ffffffffffffffff8111156112ce57600080fd5b8301601f810185136112df57600080fd5b6112ee8582356020840161122e565b95602094909401359450505050565b60006020828403121561130f57600080fd5b61111d82611196565b6000806040838503121561132b57600080fd5b61133483611196565b91506020830135801515811461134957600080fd5b809150509250929050565b6000806000806080858703121561136a57600080fd5b61137385611196565b935061138160208601611196565b925060408501359150606085013567ffffffffffffffff8111156113a457600080fd5b8501601f810187136113b557600080fd5b6113c48782356020840161122e565b91505092959194509250565b600080604083850312156113e357600080fd5b6113ec83611196565b91506113fa60208401611196565b90509250929050565b6000806040838503121561141657600080fd5b50508035926020909101359150565b600181811c9082168061143957607f821691505b60208210810361145957634e487b7160e01b600052602260045260246000fd5b50919050565b6020808252602d908201527f4552433732313a2063616c6c6572206973206e6f7420746f6b656e206f776e6560408201526c1c881bdc88185c1c1c9bdd9959609a1b606082015260800190565b8082018082111561038857634e487b7160e01b600052601160045260246000fd5b601f82111561055c576000816000526020600020601f850160051c810160208610156114f65750805b601f850160051c820191505b8181101561151557828155600101611502565b505050505050565b815167ffffffffffffffff81111561153757611537611218565b61154b816115458454611425565b846114cd565b602080601f83116001811461158057600084156115685750858301515b600019600386901b1c1916600185901b178555611515565b600085815260208120601f198616915b828110156115af57888601518255948401946001909101908401611590565b50858210156115cd5787850151600019600388901b60f8161c191681555b5050505050600190811b01905550565b60208082526029908201527f506f7274666f6c696f4e46543a20517565727920666f72206e6f6e657869737460408201526832b73a103a37b5b2b760b91b606082015260800190565b60208082526025908201527f4552433732313a207472616e736665722066726f6d20696e636f72726563742060408201526437bbb732b960d91b606082015260800190565b60208082526032908201527f4552433732313a207472616e7366657220746f206e6f6e20455243373231526560408201527131b2b4bb32b91034b6b83632b6b2b73a32b960711b606082015260800190565b6001600160a01b03858116825284166020820152604081018390526080606082018190526000906116f090830184611124565b9695505050505050565b60006020828403121561170c57600080fd5b815161111d816110ea56fea2646970667358221220812173cd97d345db26a7725dd6d19ea4839c8847254eaa8450d11341a83b792464736f6c63430008180033",
  "linkReferences": {},
  "deployedLinkReferences": {}
}