{
  "_format": "hh-sol-artifact-1",
  "contractName": "PortfolioNFT",
  "sourceName": "contracts/PortfolioNFT.sol",
  "abi": [
    {
      "inputs": [],
      "stateMutability": "nonpayable",
      "type": "constructor"
    },
    {
      "inputs": [
        {
          "internalType": "address",
          "name": "sender",
          "type": "address"
        },
        {
          "internalType": "uint256",
          "name": "tokenId",
          "type": "uint256"
        },
        {
          "internalType": "address",
          "name": "owner",
          "type": "address"
        }
      ],
      "name": "ERC721IncorrectOwner",
      "type": "error"
    },
    {
      "inputs": [
        {
          "internalType": "address",
          "name": "operator",
          "type": "address"
        },
        {
          "internalType": "uint256",
          "name": "tokenId",
          "type": "uint256"
        }
      ],
      "name": "ERC721InsufficientApproval",
      "type": "error"
    },
    {
      "inputs": [
        {
          "internalType": "address",
          "name": "approver",
          "type": "address"
        }
      ],
      "name": "ERC721InvalidApprover",
      "type": "error"
    },
    {
      "inputs": [
        {
          "internalType": "address",
          "name": "operator",
          "type": "address"
        }
      ],
      "name": "ERC721InvalidOperator",
      "type": "error"
    },
    {
      "inputs": [
        {
          "internalType": "address",
          "name": "owner",
          "type": "address"
        }
      ],
      "name": "ERC721InvalidOwner",
      "type": "error"
    },
    {
      "inputs": [
        {
          "internalType": "address",
          "name": "receiver",
          "type": "address"
        }
      ],
      "name": "ERC721InvalidReceiver",
      "type": "error"
    },
    {
      "inputs": [
        {
          "internalType": "address",
          "name": "sender",
          "type": "address"
        }
      ],
      "name": "ERC721InvalidSender",
      "type": "error"
    },
    {
      "inputs": [
        {
          "internalType": "uint256",
          "name": "tokenId",
          "type": "uint256"
        }
      ],
      "name": "ERC721NonexistentToken",
      "type": "error"
    },
    {
      "inputs": [
        {
          "internalType": "address",
          "name": "owner",
          "type": "address"
        }
      ],
      "name": "OwnableInvalidOwner",
      "type": "error"
    },
    {
      "inputs": [
        {
          "internalType": "address",
          "name": "account",
          "type": "address"
        }
      ],
      "name": "OwnableUnauthorizedAccount",
      "type": "error"
    },
    {
      "anonymous": false,
      "inputs": [
        {
          "indexed": true,
          "internalType": "address",
          "name": "owner",
          "type": "address"
        },
        {
          "indexed": true,
          "internalType": "address",
          "name": "approved",
          "type": "address"
        },
        {
          "indexed": true,
          "internalType": "uint256",
          "name": "tokenId",
          "type": "uint256"
        }
      ],
      "name": "Approval",
      "type": "event"
    },
    {
      "anonymous": false,
      "inputs": [
        {
          "indexed": true,
          "internalType": "address",
          "name": "owner",
          "type": "address"
        },
        {
          "indexed": true,
          "internalType": "address",
          "name": "operator",
          "type": "address"
        },
        {
          "indexed": false,
          "internalType": "bool",
          "name": "approved",
          "type": "bool"
        }
      ],
      "name": "ApprovalForAll",
      "type": "event"
    },
    {
      "anonymous": false,
      "inputs": [
        {
          "indexed": true,
          "internalType": "address",
          "name": "previousOwner",
          "type": "address"
        },
        {
          "indexed": true,
          "internalType": "address",
          "name": "newOwner",
          "type": "address"
        }
      ],
      "name": "OwnershipTransferred",
      "type": "event"
    },
    {
      "anonymous": false,
      "inputs": [
        {
          "indexed": true,
          "internalType": "address",
          "name": "from",
          "type": "address"
        },
        {
          "indexed": true,
          "internalType": "address",
          "name": "to",
          "type": "address"
        },
        {
          "indexed": true,
          "internalType": "uint256",
          "name": "tokenId",
          "type": "uint256"
        }
      ],
      "name": "Transfer",
      "type": "event"
    },
    {
      "inputs": [
        {
          "internalType": "address",
          "name": "to",
          "type": "address"
        },
        {
          "internalType": "uint256",
          "name": "tokenId",
          "type": "uint256"
        }
      ],
      "name": "approve",
      "outputs": [],
      "stateMutability": "nonpayable",
      "type": "function"
    },
    {
      "inputs": [
        {
          "internalType": "address",
          "name": "owner",
          "type": "address"
        }
      ],
      "name": "balanceOf",
      "outputs": [
        {
          "internalType": "uint256",
          "name": "",
          "type": "uint256"
        }
      ],
      "stateMutability": "view",
      "type": "function"
    },
    {
      "inputs": [
        {
          "internalType": "uint256",
          "name": "tokenId",
          "type": "uint256"
        }
      ],
      "name": "getApproved",
      "outputs": [
        {
          "internalType": "address",
          "name": "",
          "type": "address"
        }
      ],
      "stateMutability": "view",
      "type": "function"
    },
    {
      "inputs": [
        {
          "internalType": "uint256",
          "name": "tokenId",
          "type": "uint256"
        }
      ],
      "name": "getPrice",
      "outputs": [
        {
          "internalType": "uint256",
          "name": "",
          "type": "uint256"
        }
      ],
      "stateMutability": "view",
      "type": "function"
    },
    {
      "inputs": [
        {
          "internalType": "address",
          "name": "owner",
          "type": "address"
        },
        {
          "internalType": "address",
          "name": "operator",
          "type": "address"
        }
      ],
      "name": "isApprovedForAll",
      "outputs": [
        {
          "internalType": "bool",
          "name": "",
          "type": "bool"
        }
      ],
      "stateMutability": "view",
      "type": "function"
    },
    {
      "inputs": [
        {
          "internalType": "address",
          "name": "recipient",
          "type": "address"
        },
        {
          "internalType": "string",
          "name": "tokenURI",
          "type": "string"
        },
        {
          "internalType": "uint256",
          "name": "price",
          "type": "uint256"
        }
      ],
      "name": "mintNFT",
      "outputs": [
        {
          "internalType": "uint256",
          "name": "",
          "type": "uint256"
        }
      ],
      "stateMutability": "nonpayable",
      "type": "function"
    },
    {
      "inputs": [],
      "name": "name",
      "outputs": [
        {
          "internalType": "string",
          "name": "",
          "type": "string"
        }
      ],
      "stateMutability": "view",
      "type": "function"
    },
    {
      "inputs": [],
      "name": "owner",
      "outputs": [
        {
          "internalType": "address",
          "name": "",
          "type": "address"
        }
      ],
      "stateMutability": "view",
      "type": "function"
    },
    {
      "inputs": [
        {
          "internalType": "uint256",
          "name": "tokenId",
          "type": "uint256"
        }
      ],
      "name": "ownerOf",
      "outputs": [
        {
          "internalType": "address",
          "name": "",
          "type": "address"
        }
      ],
      "stateMutability": "view",
      "type": "function"
    },
    {
      "inputs": [],
      "name": "renounceOwnership",
      "outputs": [],
      "stateMutability": "nonpayable",
      "type": "function"
    },
    {
      "inputs": [
        {
          "internalType": "address",
          "name": "from",
          "type": "address"
        },
        {
          "internalType": "address",
          "name": "to",
          "type": "address"
        },
        {
          "internalType": "uint256",
          "name": "tokenId",
          "type": "uint256"
        }
      ],
      "name": "safeTransferFrom",
      "outputs": [],
      "stateMutability": "nonpayable",
      "type": "function"
    },
    {
      "inputs": [
        {
          "internalType": "address",
          "name": "from",
          "type": "address"
        },
        {
          "internalType": "address",
          "name": "to",
          "type": "address"
        },
        {
          "internalType": "uint256",
          "name": "tokenId",
          "type": "uint256"
        },
        {
          "internalType": "bytes",
          "name": "data",
          "type": "bytes"
        }
      ],
      "name": "safeTransferFrom",
      "outputs": [],
      "stateMutability": "nonpayable",
      "type": "function"
    },
    {
      "inputs": [
        {
          "internalType": "address",
          "name": "operator",
          "type": "address"
        },
        {
          "internalType": "bool",
          "name": "approved",
          "type": "bool"
        }
      ],
      "name": "setApprovalForAll",
      "outputs": [],
      "stateMutability": "nonpayable",
      "type": "function"
    },
    {
      "inputs": [
        {
          "internalType": "uint256",
          "name": "tokenId",
          "type": "uint256"
        },
        {
          "internalType": "uint256",
          "name": "newPrice",
          "type": "uint256"
        }
      ],
      "name": "setPrice",
      "outputs": [],
      "stateMutability": "nonpayable",
      "type": "function"
    },
    {
      "inputs": [
        {
          "internalType": "bytes4",
          "name": "interfaceId",
          "type": "bytes4"
        }
      ],
      "name": "supportsInterface",
      "outputs": [
        {
          "internalType": "bool",
          "name": "",
          "type": "bool"
        }
      ],
      "stateMutability": "view",
      "type": "function"
    },
    {
      "inputs": [],
      "name": "symbol",
      "outputs": [
        {
          "internalType": "string",
          "name": "",
          "type": "string"
        }
      ],
      "stateMutability": "view",
      "type": "function"
    },
    {
      "inputs": [
        {
          "internalType": "uint256",
          "name": "",
          "type": "uint256"
        }
      ],
      "name": "tokenPrices",
      "outputs": [
        {
          "internalType": "uint256",
          "name": "",
          "type": "uint256"
        }
      ],
      "stateMutability": "view",
      "type": "function"
    },
    {
      "inputs": [
        {
          "internalType": "uint256",
          "name": "tokenId",
          "type": "uint256"
        }
      ],
      "name": "tokenURI",
      "outputs": [
        {
          "internalType": "string",
          "name": "",
          "type": "string"
        }
      ],
      "stateMutability": "view",
      "type": "function"
    },
    {
      "inputs": [
        {
          "internalType": "address",
          "name": "from",
          "type": "address"
        },
        {
          "internalType": "address",
          "name": "to",
          "type": "address"
        },
        {
          "internalType": "uint256",
          "name": "tokenId",
          "type": "uint256"
        }
      ],
      "name": "transferFrom",
      "outputs": [],
      "stateMutability": "nonpayable",
      "type": "function"
    },
    {
      "inputs": [
        {
          "internalType": "address",
          "name": "newOwner",
          "type": "address"
        }
      ],
      "name": "transferOwnership",
      "outputs": [],
      "stateMutability": "nonpayable",
      "type": "function"
    }
  ],
  "bytecode": "0x60806040523480156200001157600080fd5b50336040518060400160405280600d81526020016c141bdc9d199bdb1a5bc8139195609a1b815250604051806040016040528060048152602001631413919560e21b8152508160009081620000679190620001b8565b506001620000768282620001b8565b5050506001600160a01b038116620000a857604051631e4fbdf760e01b81526000600482015260240160405180910390fd5b620000b381620000bf565b50600060075562000284565b600680546001600160a01b038381166001600160a01b0319831681179093556040519116919082907f8be0079c531659141344cd1fd0a4f28419497f9722a3daafe3b4186f6b6457e090600090a35050565b634e487b7160e01b600052604160045260246000fd5b600181811c908216806200013c57607f821691505b6020821081036200015d57634e487b7160e01b600052602260045260246000fd5b50919050565b601f821115620001b3576000816000526020600020601f850160051c810160208610156200018e5750805b601f850160051c820191505b81811015620001af578281556001016200019a565b5050505b505050565b81516001600160401b03811115620001d457620001d462000111565b620001ec81620001e5845462000127565b8462000163565b602080601f8311600181146200022457600084156200020b5750858301515b600019600386901b1c1916600185901b178555620001af565b600085815260208120601f198616915b82811015620002555788860151825594840194600190910190840162000234565b5085821015620002745787850151600019600388901b60f8161c191681555b5050505050600190811b01905550565b61135180620002946000396000f3fe608060405234801561001057600080fd5b506004361061012c5760003560e01c80638da5cb5b116100ad578063e5afe3e611610071578063e5afe3e614610275578063e757223014610295578063e985e9c5146102a8578063f2fde38b146102bb578063f7d97577146102ce57600080fd5b80638da5cb5b1461022357806395d89b4114610234578063a22cb4651461023c578063b88d4fde1461024f578063c87b56dd1461026257600080fd5b806323b872dd116100f457806323b872dd146101cf57806342842e0e146101e25780636352211e146101f557806370a0823114610208578063715018a61461021b57600080fd5b806301ffc9a71461013157806306fdde0314610159578063081812fc1461016e57806308598df014610199578063095ea7b3146101ba575b600080fd5b61014461013f366004610dde565b6102e1565b60405190151581526020015b60405180910390f35b610161610333565b6040516101509190610e48565b61018161017c366004610e5b565b6103c5565b6040516001600160a01b039091168152602001610150565b6101ac6101a7366004610f1c565b6103ee565b604051908152602001610150565b6101cd6101c8366004610f87565b610447565b005b6101cd6101dd366004610fb1565b610456565b6101cd6101f0366004610fb1565b6104e6565b610181610203366004610e5b565b610506565b6101ac610216366004610fed565b610511565b6101cd610559565b6006546001600160a01b0316610181565b61016161056d565b6101cd61024a366004611008565b61057c565b6101cd61025d366004611044565b610587565b610161610270366004610e5b565b61059f565b6101ac610283366004610e5b565b60086020526000908152604090205481565b6101ac6102a3366004610e5b565b6106aa565b6101446102b63660046110c0565b6106e4565b6101cd6102c9366004610fed565b610712565b6101cd6102dc3660046110f3565b610750565b60006001600160e01b031982166380ac58cd60e01b148061031257506001600160e01b03198216635b5e139f60e01b145b8061032d57506301ffc9a760e01b6001600160e01b03198316145b92915050565b60606000805461034290611115565b80601f016020809104026020016040519081016040528092919081815260200182805461036e90611115565b80156103bb5780601f10610390576101008083540402835291602001916103bb565b820191906000526020600020905b81548152906001019060200180831161039e57829003601f168201915b5050505050905090565b60006103d0826107f6565b506000828152600460205260409020546001600160a01b031661032d565b6000600160076000828254610403919061114f565b9091555050600754610415858261082f565b600081815260096020526040902061042d85826111b8565b506000818152600860205260409020929092555092915050565b610452828233610894565b5050565b6001600160a01b03821661048557604051633250574960e11b8152600060048201526024015b60405180910390fd5b60006104928383336108a1565b9050836001600160a01b0316816001600160a01b0316146104e0576040516364283d7b60e01b81526001600160a01b038086166004830152602482018490528216604482015260640161047c565b50505050565b61050183838360405180602001604052806000815250610587565b505050565b600061032d826107f6565b60006001600160a01b03821661053d576040516322718ad960e21b81526000600482015260240161047c565b506001600160a01b031660009081526003602052604090205490565b61056161099a565b61056b60006109c7565b565b60606001805461034290611115565b610452338383610a19565b610592848484610456565b6104e03385858585610ab8565b60606105aa82610be3565b61060c5760405162461bcd60e51b815260206004820152602d60248201527f506f7274666f6c696f4e46543a2055524920717565727920666f72206e6f6e6560448201526c3c34b9ba32b73a103a37b5b2b760991b606482015260840161047c565b6000828152600960205260409020805461062590611115565b80601f016020809104026020016040519081016040528092919081815260200182805461065190611115565b801561069e5780601f106106735761010080835404028352916020019161069e565b820191906000526020600020905b81548152906001019060200180831161068157829003601f168201915b50505050509050919050565b60006106b582610be3565b6106d15760405162461bcd60e51b815260040161047c90611278565b5060009081526008602052604090205490565b6001600160a01b03918216600090815260056020908152604080832093909416825291909152205460ff1690565b61071a61099a565b6001600160a01b03811661074457604051631e4fbdf760e01b81526000600482015260240161047c565b61074d816109c7565b50565b61075982610be3565b6107755760405162461bcd60e51b815260040161047c90611278565b3361077f83610506565b6001600160a01b0316146107e45760405162461bcd60e51b815260206004820152602660248201527f506f7274666f6c696f4e46543a204f6e6c79206f776e65722063616e2073657460448201526520707269636560d01b606482015260840161047c565b60009182526008602052604090912055565b6000818152600260205260408120546001600160a01b03168061032d57604051637e27328960e01b81526004810184905260240161047c565b6001600160a01b03821661085957604051633250574960e11b81526000600482015260240161047c565b6000610867838360006108a1565b90506001600160a01b03811615610501576040516339e3563760e11b81526000600482015260240161047c565b6105018383836001610bf8565b6000828152600260205260408120546001600160a01b03908116908316156108ce576108ce818486610cfe565b6001600160a01b0381161561090c576108eb600085600080610bf8565b6001600160a01b038116600090815260036020526040902080546000190190555b6001600160a01b0385161561093b576001600160a01b0385166000908152600360205260409020805460010190555b60008481526002602052604080822080546001600160a01b0319166001600160a01b0389811691821790925591518793918516917fddf252ad1be2c89b69c2b068fc378daa952ba7f163c4a11628f55a4df523b3ef91a4949350505050565b6006546001600160a01b0316331461056b5760405163118cdaa760e01b815233600482015260240161047c565b600680546001600160a01b038381166001600160a01b0319831681179093556040519116919082907f8be0079c531659141344cd1fd0a4f28419497f9722a3daafe3b4186f6b6457e090600090a35050565b6001600160a01b038216610a4b57604051630b61174360e31b81526001600160a01b038316600482015260240161047c565b6001600160a01b03838116600081815260056020908152604080832094871680845294825291829020805460ff191686151590811790915591519182527f17307eab39ab6107e8899845ad3d59bd9653f200f220920489ca2b5937696c31910160405180910390a3505050565b6001600160a01b0383163b15610bdc57604051630a85bd0160e11b81526001600160a01b0384169063150b7a0290610afa9088908890879087906004016112c1565b6020604051808303816000875af1925050508015610b35575060408051601f3d908101601f19168201909252610b32918101906112fe565b60015b610b9e573d808015610b63576040519150601f19603f3d011682016040523d82523d6000602084013e610b68565b606091505b508051600003610b9657604051633250574960e11b81526001600160a01b038516600482015260240161047c565b805181602001fd5b6001600160e01b03198116630a85bd0160e11b14610bda57604051633250574960e11b81526001600160a01b038516600482015260240161047c565b505b5050505050565b6000808211801561032d575050600754101590565b8080610c0c57506001600160a01b03821615155b15610cce576000610c1c846107f6565b90506001600160a01b03831615801590610c485750826001600160a01b0316816001600160a01b031614155b8015610c5b5750610c5981846106e4565b155b15610c845760405163a9fbf51f60e01b81526001600160a01b038416600482015260240161047c565b8115610ccc5783856001600160a01b0316826001600160a01b03167f8c5be1e5ebec7d5bd14f71427d1e84f3dd0314c0f7b2291e5b200ac8c7c3b92560405160405180910390a45b505b5050600090815260046020526040902080546001600160a01b0319166001600160a01b0392909216919091179055565b610d09838383610d62565b610501576001600160a01b038316610d3757604051637e27328960e01b81526004810182905260240161047c565b60405163177e802f60e01b81526001600160a01b03831660048201526024810182905260440161047c565b60006001600160a01b03831615801590610dc05750826001600160a01b0316846001600160a01b03161480610d9c5750610d9c84846106e4565b80610dc057506000828152600460205260409020546001600160a01b038481169116145b949350505050565b6001600160e01b03198116811461074d57600080fd5b600060208284031215610df057600080fd5b8135610dfb81610dc8565b9392505050565b6000815180845260005b81811015610e2857602081850181015186830182015201610e0c565b506000602082860101526020601f19601f83011685010191505092915050565b602081526000610dfb6020830184610e02565b600060208284031215610e6d57600080fd5b5035919050565b80356001600160a01b0381168114610e8b57600080fd5b919050565b634e487b7160e01b600052604160045260246000fd5b600067ffffffffffffffff80841115610ec157610ec1610e90565b604051601f8501601f19908116603f01168101908282118183101715610ee957610ee9610e90565b81604052809350858152868686011115610f0257600080fd5b858560208301376000602087830101525050509392505050565b600080600060608486031215610f3157600080fd5b610f3a84610e74565b9250602084013567ffffffffffffffff811115610f5657600080fd5b8401601f81018613610f6757600080fd5b610f7686823560208401610ea6565b925050604084013590509250925092565b60008060408385031215610f9a57600080fd5b610fa383610e74565b946020939093013593505050565b600080600060608486031215610fc657600080fd5b610fcf84610e74565b9250610fdd60208501610e74565b9150604084013590509250925092565b600060208284031215610fff57600080fd5b610dfb82610e74565b6000806040838503121561101b57600080fd5b61102483610e74565b91506020830135801515811461103957600080fd5b809150509250929050565b6000806000806080858703121561105a57600080fd5b61106385610e74565b935061107160208601610e74565b925060408501359150606085013567ffffffffffffffff81111561109457600080fd5b8501601f810187136110a557600080fd5b6110b487823560208401610ea6565b91505092959194509250565b600080604083850312156110d357600080fd5b6110dc83610e74565b91506110ea60208401610e74565b90509250929050565b6000806040838503121561110657600080fd5b50508035926020909101359150565b600181811c9082168061112957607f821691505b60208210810361114957634e487b7160e01b600052602260045260246000fd5b50919050565b8082018082111561032d57634e487b7160e01b600052601160045260246000fd5b601f821115610501576000816000526020600020601f850160051c810160208610156111995750805b601f850160051c820191505b81811015610bda578281556001016111a5565b815167ffffffffffffffff8111156111d2576111d2610e90565b6111e6816111e08454611115565b84611170565b602080601f83116001811461121b57600084156112035750858301515b600019600386901b1c1916600185901b178555610bda565b600085815260208120601f198616915b8281101561124a5788860151825594840194600190910190840161122b565b50858210156112685787850151600019600388901b60f8161c191681555b5050505050600190811b01905550565b60208082526029908201527f506f7274666f6c696f4e46543a20517565727920666f72206e6f6e657869737460408201526832b73a103a37b5b2b760b91b606082015260800190565b6001600160a01b03858116825284166020820152604081018390526080606082018190526000906112f490830184610e02565b9695505050505050565b60006020828403121561131057600080fd5b8151610dfb81610dc856fea264697066735822122071de3a22efcb97268382c5895eddb0190d29fdda16065f494c9e8748a7e57bdd64736f6c63430008180033",
  "linkReferences": {},
  "deployedLinkReferences": {}
}