{
  "_format": "hh-sol-artifact-1",
  "contractName": "MultiTokenMarketplace",
  "sourceName": "contracts/MultiTokenMarketplace.sol",
  "abi": [
    {
      "inputs": [],
      "stateMutability": "nonpayable",
      "type": "constructor"
    },
    {
      "inputs": [
        {
          "internalType": "address",
          "name": "owner",
          "type": "address"
        }
      ],
      "name": "OwnableInvalidOwner",
      "type": "error"
    },
    {
      "inputs": [
        {
          "internalType": "address",
          "name": "account",
          "type": "address"
        }
      ],
      "name": "OwnableUnauthorizedAccount",
      "type": "error"
    },
    {
      "anonymous": false,
      "inputs": [
        {
          "indexed": false,
          "internalType": "uint256",
          "name": "listingId",
          "type": "uint256"
        },
        {
          "indexed": true,
          "internalType": "address",
          "name": "seller",
          "type": "address"
        },
        {
          "indexed": false,
          "internalType": "enum MultiTokenMarketplace.TokenStandard",
          "name": "standard",
          "type": "uint8"
        },
        {
          "indexed": false,
          "internalType": "address",
          "name": "tokenAddress",
          "type": "address"
        },
        {
          "indexed": false,
          "internalType": "uint256",
          "name": "tokenId",
          "type": "uint256"
        },
        {
          "indexed": false,
          "internalType": "uint256",
          "name": "amount",
          "type": "uint256"
        },
        {
          "indexed": false,
          "internalType": "uint256",
          "name": "price",
          "type": "uint256"
        }
      ],
      "name": "ItemListed",
      "type": "event"
    },
    {
      "anonymous": false,
      "inputs": [
        {
          "indexed": true,
          "internalType": "address",
          "name": "previousOwner",
          "type": "address"
        },
        {
          "indexed": true,
          "internalType": "address",
          "name": "newOwner",
          "type": "address"
        }
      ],
      "name": "OwnershipTransferred",
      "type": "event"
    },
    {
      "inputs": [
        {
          "internalType": "uint256",
          "name": "listingId",
          "type": "uint256"
        }
      ],
      "name": "buyItem",
      "outputs": [],
      "stateMutability": "payable",
      "type": "function"
    },
    {
      "inputs": [
        {
          "internalType": "address",
          "name": "_tokenAddress",
          "type": "address"
        },
        {
          "internalType": "enum MultiTokenMarketplace.TokenStandard",
          "name": "_standard",
          "type": "uint8"
        },
        {
          "internalType": "uint256",
          "name": "_tokenId",
          "type": "uint256"
        },
        {
          "internalType": "uint256",
          "name": "_amount",
          "type": "uint256"
        },
        {
          "internalType": "uint256",
          "name": "_price",
          "type": "uint256"
        }
      ],
      "name": "listItem",
      "outputs": [],
      "stateMutability": "nonpayable",
      "type": "function"
    },
    {
      "inputs": [
        {
          "internalType": "uint256",
          "name": "",
          "type": "uint256"
        }
      ],
      "name": "listings",
      "outputs": [
        {
          "internalType": "address",
          "name": "tokenAddress",
          "type": "address"
        },
        {
          "internalType": "enum MultiTokenMarketplace.TokenStandard",
          "name": "standard",
          "type": "uint8"
        },
        {
          "internalType": "uint256",
          "name": "tokenId",
          "type": "uint256"
        },
        {
          "internalType": "uint256",
          "name": "amount",
          "type": "uint256"
        },
        {
          "internalType": "uint256",
          "name": "price",
          "type": "uint256"
        },
        {
          "internalType": "address",
          "name": "seller",
          "type": "address"
        },
        {
          "internalType": "bool",
          "name": "active",
          "type": "bool"
        }
      ],
      "stateMutability": "view",
      "type": "function"
    },
    {
      "inputs": [],
      "name": "nextListingId",
      "outputs": [
        {
          "internalType": "uint256",
          "name": "",
          "type": "uint256"
        }
      ],
      "stateMutability": "view",
      "type": "function"
    },
    {
      "inputs": [],
      "name": "owner",
      "outputs": [
        {
          "internalType": "address",
          "name": "",
          "type": "address"
        }
      ],
      "stateMutability": "view",
      "type": "function"
    },
    {
      "inputs": [],
      "name": "renounceOwnership",
      "outputs": [],
      "stateMutability": "nonpayable",
      "type": "function"
    },
    {
      "inputs": [
        {
          "internalType": "address",
          "name": "newOwner",
          "type": "address"
        }
      ],
      "name": "transferOwnership",
      "outputs": [],
      "stateMutability": "nonpayable",
      "type": "function"
    }
  ],
  "bytecode": "0x608060405234801561001057600080fd5b50338061003757604051631e4fbdf760e01b81526000600482015260240160405180910390fd5b61004081610046565b50610096565b600080546001600160a01b038381166001600160a01b0319831681178455604051919092169283917f8be0079c531659141344cd1fd0a4f28419497f9722a3daafe3b4186f6b6457e09190a35050565b610a14806100a56000396000f3fe6080604052600436106100705760003560e01c8063aaccf1ec1161004e578063aaccf1ec146100d9578063de74e57b146100fd578063e7fb74c714610179578063f2fde38b1461018c57600080fd5b8063592efd6a14610075578063715018a6146100975780638da5cb5b146100ac575b600080fd5b34801561008157600080fd5b50610095610090366004610808565b6101ac565b005b3480156100a357600080fd5b506100956104b3565b3480156100b857600080fd5b506000546040516001600160a01b0390911681526020015b60405180910390f35b3480156100e557600080fd5b506100ef60025481565b6040519081526020016100d0565b34801561010957600080fd5b5061016661011836600461085b565b6001602081905260009182526040909120805491810154600282015460038301546004909301546001600160a01b038086169560ff600160a01b918290048116969392831692919091041687565b6040516100d097969594939291906108ac565b61009561018736600461085b565b6104c7565b34801561019857600080fd5b506100956101a73660046108fa565b610731565b600081116102015760405162461bcd60e51b815260206004820152601c60248201527f5072696365206d7573742062652067726561746572207468616e20300000000060448201526064015b60405180910390fd5b600184600281111561021557610215610874565b03610286576040516323b872dd60e01b8152336004820152306024820152604481018490526001600160a01b038616906323b872dd906064015b600060405180830381600087803b15801561026957600080fd5b505af115801561027d573d6000803e3d6000fd5b5050505061034a565b600284600281111561029a5761029a610874565b036102d157604051637921219560e11b81526001600160a01b0386169063f242432a9061024f90339030908890889060040161091c565b6040516323b872dd60e01b8152336004820152306024820152604481018390526001600160a01b038616906323b872dd906064016020604051808303816000875af1158015610324573d6000803e3d6000fd5b505050506040513d601f19601f820116820180604052508101906103489190610954565b505b600280546000918261035b83610976565b9190505590506040518060e00160405280876001600160a01b0316815260200186600281111561038d5761038d610874565b81526020808201879052604080830187905260608301869052336080840152600160a09093018390526000858152928252909120825181546001600160a01b03919091166001600160a01b031982168117835592840151919283916001600160a81b03191617600160a01b83600281111561040a5761040a610874565b02179055506040828101516001830155606083015160028301556080830151600383015560a08301516004909201805460c0909401511515600160a01b026001600160a81b03199094166001600160a01b03909316929092179290921790555133907f1816c7f46f693103016ef51956c0c83049b42ef205671aecc592bdd73ada14f7906104a390849089908b908a908a908a9061099d565b60405180910390a2505050505050565b6104bb61076f565b6104c5600061079c565b565b60008181526001602052604090206004810154600160a01b900460ff166105255760405162461bcd60e51b81526020600482015260126024820152714c697374696e67206e6f742061637469766560701b60448201526064016101f8565b806003015434101561056e5760405162461bcd60e51b8152602060048201526012602482015271496e73756666696369656e742066756e647360701b60448201526064016101f8565b60018154600160a01b900460ff16600281111561058d5761058d610874565b0361060757805460018201546040516323b872dd60e01b815230600482015233602482015260448101919091526001600160a01b03909116906323b872dd906064015b600060405180830381600087803b1580156105ea57600080fd5b505af11580156105fe573d6000803e3d6000fd5b505050506106e4565b60028154600160a01b900460ff16600281111561062657610626610874565b0361066857805460018201546002830154604051637921219560e11b81526001600160a01b039093169263f242432a926105d09230923392919060040161091c565b8054600282015460405163a9059cbb60e01b815233600482015260248101919091526001600160a01b039091169063a9059cbb906044016020604051808303816000875af11580156106be573d6000803e3d6000fd5b505050506040513d601f19601f820116820180604052508101906106e29190610954565b505b60048101546040516001600160a01b03909116903480156108fc02916000818181858888f1935050505015801561071f573d6000803e3d6000fd5b50600401805460ff60a01b1916905550565b61073961076f565b6001600160a01b03811661076357604051631e4fbdf760e01b8152600060048201526024016101f8565b61076c8161079c565b50565b6000546001600160a01b031633146104c55760405163118cdaa760e01b81523360048201526024016101f8565b600080546001600160a01b038381166001600160a01b0319831681178455604051919092169283917f8be0079c531659141344cd1fd0a4f28419497f9722a3daafe3b4186f6b6457e09190a35050565b80356001600160a01b038116811461080357600080fd5b919050565b600080600080600060a0868803121561082057600080fd5b610829866107ec565b945060208601356003811061083d57600080fd5b94979496505050506040830135926060810135926080909101359150565b60006020828403121561086d57600080fd5b5035919050565b634e487b7160e01b600052602160045260246000fd5b600381106108a857634e487b7160e01b600052602160045260246000fd5b9052565b6001600160a01b03888116825260e08201906108cb602084018a61088a565b87604084015286606084015285608084015280851660a08401525082151560c083015298975050505050505050565b60006020828403121561090c57600080fd5b610915826107ec565b9392505050565b6001600160a01b0394851681529290931660208301526040820152606081019190915260a06080820181905260009082015260c00190565b60006020828403121561096657600080fd5b8151801515811461091557600080fd5b60006001820161099657634e487b7160e01b600052601160045260246000fd5b5060010190565b86815260c081016109b1602083018861088a565b6001600160a01b039590951660408201526060810193909352608083019190915260a0909101529291505056fea2646970667358221220f201e206f274d8c612e487e6d037f90112045c1b562b4b6aee02751554472ed364736f6c63430008180033",
  "linkReferences": {},
  "deployedLinkReferences": {}
}